:100000005DC0000082C0000080C000007EC0000013
:100010007CC000007AC0000078C0000076C00000FC
:1000200074C000001DC6000070C000000C94A00841
:100030006CC000006AC0000068C0000066C000001C
:100040000C94860A62C000000C94E20C0C94140D0F
:100050005CC000005AC0000058C0000056C000003C
:1000600054C0000052C0000000000008000201005F
:100070000003040700000000000000000102040863
:100080001020408001020408102001020408102002
:10009000040404040404040402020202020203032E
:1000A0000303030300000000250028002B000000CC
:1000B0000000240027002A002A01390D11241FBE48
:1000C000CFEFD8E0DEBFCDBF11E0A0E0B1E0E8E9BE
:1000D000FCE102C005900D92AA39B107D9F722E0E0
:1000E000AAE9B1E001C01D92A03EB207E1F710E01D
:1000F000CEE5D0E004C02197FE010E94350ECC353C
:10010000D107C9F70FD60C944A0E7ACFCF93DF935D
:10011000882349F0EB0181500E940B0B998388835F
:10012000DF91CF910895FB0111821082F9CF0F93D7
:100130001F938B019C0183E03695279517950795B2
:100140008A95D1F706561E4F462F477021E030E0C2
:10015000F90102C0EE0FFF1F4A95E2F7AF01F80167
:1001600020812423CB010196211102C090E080E080
:100170001F910F9108950F931F938B019C0183E0B2
:1001800036952795179507958A95D1F7677081E081
:1001900090E001C0880F6A95EAF7F801E656FE4F35
:1001A0002081452B31F48095822380831F910F910C
:1001B0000895822BFACFCF92DF92EF92FF92CF93E6
:1001C000DF936B017C0160E08EE0C816D104E1048E
:1001D000F10490F48EE08C0D0E944F0BE601219605
:1001E000AE01C701B601C7DFCE01DF91CF91FF900D
:1001F000EF90DF90CF9008958C2DEECF882341F0C3
:100200008150682F70E090E080E050E040E0B3CF94
:100210000895611102C00C944F0B6130E1F362E06C
:10022000FACF662319F061E00C948B0B60E0FCCFF1
:1002300070E023E0829FC00111248D559E4F0C94E5
:10024000F10970E023E0829FC00111248D559E4F7B
:100250000C942D0A83EA91E00C945909CF92DF9215
:10026000EF92FF920F931F93CF93DF93F701C0801C
:10027000D180E280F380DC01CD92DD92ED92FC92A0
:10028000139784819581A681B781EB018883998337
:10029000AA83BB8380859185A285B385EA01888383
:1002A0009983AA83BB8384859585A685B785E90153
:1002B00088839983AA83BB8380899189A289B38922
:1002C000F80180839183A283B383DF91CF911F9143
:1002D0000F91FF90EF90DF90CF900895CF92DF9233
:1002E000EF92FF926B017C019F7720E030E040E8C5
:1002F00059E5C7D587FF26C020E030E040E05FE346
:10030000C701B601B6D687FD0CC020E030E040E062
:100310005FE3C701B6013ED5FF90EF90DF90CF902D
:10032000E0C520E030E040E05FEBC701B601A1D6B8
:1003300018167CF420E030E0A901C701B6019DD673
:100340006B017C01C701B601FF90EF90DF90CF9069
:10035000089520E030E040E05FE3C701B60119D521
:10036000FF90EF90DF90CF9079C5CF92DF92EF9220
:10037000FF920F931F93CF93DF93CDB7DEB72897EC
:100380000FB6F894DEBF0FBECDBFC0900001D09075
:100390000101E0900201F0900301A7019601609134
:1003A000A4027091A5028091A6029091A70269D53E
:1003B000882341F0C092A402D092A502E092A60246
:1003C000F092A7026EE070E080E090E0B0DE9093E3
:1003D000A3028093A20243E050E0BE016F5F7F4F13
:1003E00095DEC0900401D0900501E0900601F090E8
:1003F0000701A7019601609198027091990280917E
:100400009A0290919B023DD5882341F0C0929802B8
:10041000D0929902E0929A02F0929B026FE070E013
:1004200080E090E084DE909397028093960243E010
:1004300050E0BE01695F7F4F69DEC0900801D09037
:100440000901E0900A01F0900B01A701960160916B
:100450008C0270918D0280918E0290918F0211D545
:10046000882341F0C0928C02D0928D02E0928E02DD
:10047000F0928F0260E170E080E090E058DE9093AF
:100480008B0280938A0243E050E0BE016B5F7F4F96
:100490003DDEC0900C01D0900D01E0900E01F09077
:1004A0000F01A701960160918002709181028091F5
:1004B000820290918302E5D4882341F0C0928002A9
:1004C000D0928102E0928202F092830261E170E0B8
:1004D00080E090E02CDE90937F0280937E0243E0E8
:1004E00050E0BE016D5F7F4F11DE49815A812F813F
:1004F00038858D819E812417350708F0F2C0841756
:10050000950708F0EEC06B817C816417750708F0D1
:10051000E8C0C0908001D0908101E0908201F0900D
:1005200083018091C80281110DC181E08093C802CE
:1005300082E08093C90220E6E22E21E0F22E0AED4D
:1005400012E026ED32E042ED52E06EEC72E08AEC11
:1005500092E084DE6091CA027091CB028091CC025D
:100560009091CD02BBDE6B017C0120E030E040E8E1
:1005700053E487D46FEF87FF0CC020E030E0A9017F
:10058000C701B60176D560E087FD03C0C701B6019B
:100590007CD48DE046DE6091CE027091CF028091D6
:1005A000D0029091D1029ADE6B017C0120E030E014
:1005B00040E853E466D46FEF87FF0CC020E030E0E2
:1005C000A901C701B60155D560E087FD03C0C70189
:1005D000B6015BD48CE025DE6091D2027091D3022B
:1005E0008091D4029091D50279DE6B017C0120E0EC
:1005F00030E040E853E445D46FEF87FF0CC020E0C3
:1006000030E0A901C701B60134D560E087FD03C021
:10061000C701B6013AD48BE004DE6091D602709136
:10062000D7028091D8029091D90258DE6B017C01EB
:1006300020E030E040E853E424D46FEF87FF0CC0A3
:1006400020E030E0A901C701B60113D560E087FDC5
:1006500003C0C701B60119D48AE0E3DDC090DA0215
:10066000D090DB02E090DC02F090DD0220E030E090
:10067000A901C701B60105D487FD6EC120E030E0B5
:1006800044E353E4C701B601F4D464EB1816C4F094
:10069000C701B60123DE6B017C0120E030E040E8B9
:1006A00053E4EFD36FEF87FF0BC020E030E0A901E8
:1006B000C701B601DED487FD4FC1C701B601E5D33E
:1006C00080E0BFDD28960FB6F894DEBF0FBECDBF29
:1006D000DF91CF911F910F91FF90EF90DF90CF901E
:1006E00008954217530788F48217930770F46B81BB
:1006F0007C816217730748F4C0907C01D0907D0123
:10070000E0907E01F0907F010CCF4817590788F4E4
:100710002817390770F42B813C812817390748F4D2
:10072000C0907801D0907901E0907A01F0907B013F
:10073000F8CEC0907401D0907501E0907601F090F1
:100740007701EFCE8091C902823009F43BC083303B
:1007500009F4B2C0813009F0D7C020E030E040E0B9
:1007600050E4C701B6018DD3882309F449C020E0C5
:1007700030E0A901C701B60184D3882309F4D8CE9B
:1007800020E030E040E450E4C701B6017AD38111A3
:1007900008C084E08093C90288E3E82E81E0F82E47
:1007A000CECE20E030E040E85FE3C701B60169D378
:1007B000811126C083E08093C9029CE4E92E91E078
:1007C000F92EBDCE20E030E0A901C701B60159D312
:1007D000882309F4B0CE20E030E040E85FE3C701B1
:1007E000B6014FD3882331F320E030E040E050E4FD
:1007F000C701B60146D3811154C081E08093C9027C
:100800008091100190911101A0911201B0911301FA
:100810008093CA029093CB02A093CC02B093CD02F6
:100820008091140190911501A0911601B0911701CA
:100830008093CE029093CF02A093D002B093D102C6
:100840008091180190911901A0911A01B0911B019A
:100850008093D2029093D302A093D402B093D50296
:1008600080911C0190911D01A0911E01B0911F016A
:100870008093D6029093D702A093D802B093D90266
:100880008091200190912101A0912201B09123013A
:100890008093DA029093DB02A093DC02B093DD0236
:1008A00059CE20E030E040E450E4C701B601E9D27F
:1008B000882309F46ECF3FCE20E030E040E85FE3CC
:1008C000C701B601DED2882309F477CF20E030E0FB
:1008D000A901C701B601D5D2882309F429CE20E0A9
:1008E00030E040E050E4C701B601CBD2882309F4E0
:1008F00084CF20E030E040E450E4C701B601C1D22B
:10090000882309F446CF59CF20E030E040E450E49A
:10091000C701B601B6D2882309F43ECF20E030E00B
:10092000A901C701B601ADD2882309F401CE20E0A8
:1009300030E040E050E4C701B601A3D2882309F4B7
:100940005CCF20E030E040E85FE3C701B60199D218
:10095000882309F42FCF20CF60E0B2CE8F929F92F0
:10096000AF92BF92FF920F931F93CF93DF93EAEC66
:10097000F2E000E011E0E8018CA19DA1AEA1BFA1D1
:1009800080839183A283B38388A599A5AAA5BBA5DB
:1009900084839583A683B7838CA59DA5AEA5BFA5AB
:1009A00080879187A287B38788A999A9AAA9BBA99B
:1009B00084879587A687B7878CA99DA9AEA9BFA96B
:1009C000808B918BA28BB38BC8E7D2E01CA2F8017D
:1009D00080819181A281B3818CA79DA7AEA7BFA77B
:1009E00019A6812C912C540183948DA29EA2AFA2B2
:1009F000B8A66EE070E080E090E0DDDB9BA78AA700
:100A0000FF24F394F9A6188EF80184819581A681BC
:100A1000B78188A399A3AAA3BBA31D8E898E9A8EA2
:100A2000AB8EBC8E6FE070E080E090E0C4DB9F8F07
:100A30008E8FFD8E1C86F80180859185A285B385F9
:100A40008C8B9D8BAE8BBF8B198A8D869E86AF86D5
:100A5000B88A60E170E080E090E0ADDB9B8B8A8B30
:100A6000F98A1882F80184859585A685B7858887D7
:100A70009987AA87BB871D8289829A82AB82BC82B2
:100A800061E170E080E090E096DB9F838E83FD82E1
:100A90001092C0028092C1029092C202A092C30240
:100AA000B092C40261E08DE0B4DBF092C502109216
:100AB000B8028092B9029092BA02A092BB02B092A0
:100AC000BC0261E08CE0A5DBF092BD0218AE89AEFD
:100AD0009AAEABAEBCAE61E08BE09BDBFDAE18AA7C
:100AE00089AA9AAAABAABCAA61E08AE092DBFDAA15
:100AF00069E080E0DF91CF911F910F91FF90BF904F
:100B0000AF909F908F9094CB80919C0281111DC0DB
:100B100081E080939C0280919D0290919E02A09121
:100B20009F02B091A0020197A105B10571F48091D7
:100B3000A102882351F06EE070E080E090E0F7DAE7
:100B40009093A3028093A20259DB809190028111BD
:100B50001DC081E080939002809191029091920259
:100B6000A0919302B09194020197A105B10571F48F
:100B700080919502882351F06FE070E080E090E072
:100B8000D6DA909397028093960238DB80918402A4
:100B900081111DC081E08093840280918502909133
:100BA0008602A0918702B09188020197A105B10544
:100BB00071F480918902882351F060E170E080E057
:100BC00090E0B5DA90938B0280938A0217DB8091D4
:100BD000780281111DC081E08093780280917902B2
:100BE00090917A02A0917B02B0917C020197A105BD
:100BF000B10571F480917D02882351F061E170E0CC
:100C000080E090E094DA90937F0280937E02F6DA9F
:100C10008091C002811103C081E08093C002809165
:100C2000B802811103C081E08093B8028091B002C4
:100C3000811103C081E08093B0028091A8028111EC
:100C400003C081E08093A802089540E855E260E087
:100C500070E090E080E000C026E08BED91E052C6AD
:100C60001F920F920FB60F9211242F933F934F9321
:100C70005F936F937F938F939F93AF93BF93EF9304
:100C8000FF9383E88093B2008091A8018F5F8093E7
:100C9000A801893119F41092A8012CD0FF91EF918D
:100CA000BF91AF919F918F917F916F915F914F9184
:100CB0003F912F910F900FBE0F901F90189583E8D2
:100CC0008093B200E0E7F0E080818E7F8083A0EB2C
:100CD000B0E08C918C7F8C93A1EBB0E08C91877FFE
:100CE0008C938C9187608C93808181608083089540
:100CF00081E008958091A90191E0980F9093A90156
:100D0000882349F021E030E03093AB012093AA0121
:100D10008093A9010895789428DBF8948091A90123
:100D20008150F6CFCF93DF931092DF021092DE0254
:100D300037D48BDFC0918501D0918601198218824A
:100D40000DDEF894BCDF81E028813981232B09F086
:100D500080E08093DE02789478948091DE028111A5
:100D600007C0D2DEF89490E080E0DF91CF91089543
:100D700081E028813981232B09F480E08093DF0210
:100D80009091DF0281E0911180E08093DE02B0DF7C
:100D9000E4CF5058BB27AA270ED01AC10BD130F090
:100DA00010D120F031F49F3F11F41EF400C10EF475
:100DB000E095E7FBCDC0E92F1CD180F3BA1762079D
:100DC00073078407950718F071F49EF54BC10EF474
:100DD000E0950B2EBA2FA02D0B01B90190010C014B
:100DE000CA01A0011124FF27591B99F0593F50F463
:100DF000503E68F11A16F040A22F232F342F4427BB
:100E0000585FF3CF469537952795A795F0405395B2
:100E1000C9F77EF41F16BA0B620B730B840BBAF082
:100E20009150A1F0FF0FBB1F661F771F881FC2F7ED
:100E30000EC0BA0F621F731F841F48F48795779501
:100E40006795B795F7959E3F08F0B3CF9395880FB8
:100E500008F09927EE0F979587950895ECD080F0CC
:100E60009F3740F491110EF4FEC060E070E080E81E
:100E70009FE3089526F01B16611D711D811D6EC034
:100E800088C042D008F481E00895BBD088F09F5715
:100E900090F0B92F9927B751A0F0D1F0660F771FC6
:100EA000881F991F1AF0BA95C9F712C0B13081F0A6
:100EB000D9D0B1E00895D6C0672F782F8827B85FC2
:100EC00039F0B93FCCF3869577956795B395D9F707
:100ED0003EF490958095709561957F4F8F4F9F4F11
:100EE0000895A9D080F09F3740F491110EF0BBC057
:100EF00060E070E080E89FEB089526F41B16611D0A
:100F0000711D811D2BC045C0990F0008550FAA0BFC
:100F1000E0E8FEEF16161706E807F907C0F012160C
:100F20001306E407F50798F0621B730B840B950B0F
:100F300039F40A2661F0232B242B252B21F4089564
:100F40000A2609F4A140A6958FEF811D811D089501
:100F500097F99F6780E870E060E00895882371F456
:100F6000772321F09850872B762F07C0662311F442
:100F700099270DC09051862B70E060E02AF09A9579
:100F8000660F771F881FDAF7880F9695879597F970
:100F900008959F3F31F0915020F48795779567959C
:100FA000B795880F911D9695879597F908959FEFAE
:100FB00080EC089500240A941616170618060906F0
:100FC000089500240A9412161306140605060895BF
:100FD000092E0394000C11F4882352F0BB0F40F447
:100FE000BF2B11F460FF04C06F5F7F4F8F4F9F4F87
:100FF000089557FD9058440F551F59F05F3F71F009
:101000004795880F97FB991F61F09F3F79F087956F
:101010000895121613061406551FF2CF4695F1DFF8
:1010200008C0161617061806991FF1CF8695710588
:10103000610508940895E5DFA0F0BEE7B91788F4CC
:10104000BB279F3860F41616B11D672F782F8827AD
:10105000985FF7CF869577956795B11D93959639EB
:10106000C8F30895E894BB2766277727CB0197F943
:1010700008954ADF08F48FEF08950BD0A9CF9ADFC7
:1010800028F09FDF18F0952309F062CF90CF11244C
:10109000EACFAFDFA0F3959FD1F3950F50E0551F36
:1010A000629FF001729FBB27F00DB11D639FAA27BD
:1010B000F00DB11DAA1F649F6627B00DA11D661F0C
:1010C000829F2227B00DA11D621F739FB00DA11D2D
:1010D000621F839FA00D611D221F749F3327A00DE7
:1010E000611D231F849F600D211D822F762F6A2F83
:1010F00011249F5750408AF0E1F088234AF0EE0F08
:10110000FF1FBB1F661F771F881F91505040A9F714
:101110009E3F510570F01CCFA6CF5F3FECF3983E89
:10112000DCF3869577956795B795F795E7959F5F7B
:10113000C1F7FE2B880F911D9695879597F9089515
:101140001F920F920FB60F9211242F933F934F933C
:101150005F936F937F938F939F93AF93BF93EF931F
:10116000FF938091AD0187FF27C0109285001092F8
:1011700084008091AD018F5F8093AD018091AD01BE
:10118000082E000C990B2091AC012817190629F0A4
:1011900024F08091AD018C30D4F180918400909145
:1011A0008500049680349C4908F479C080918400BD
:1011B00090918500049675C08091AD01082E000CB9
:1011C000990B2091AC012817190699F294F2E0913D
:1011D000AD018E2FEE0F990BFC01EE0FFF1FE80FF4
:1011E000F91FE255FE4F808186FFC3CFE091AD012C
:1011F0008E2FEE0F990BFC01EE0FFF1FE80FF91F6A
:10120000E255FE4F808160E08F7385D2B2CF20918E
:10121000840030918500E091AD018E2FEE0F990B87
:10122000FC01EE0FFF1FE80FF91FE255FE4F818111
:101230009281820F931F9093890080938800E091A0
:10124000AD018E2FEE0F990BFC01EE0FFF1FE80F83
:10125000F91FE255FE4F808186FF10C0E091AD017D
:101260008E2FEE0F990BFC01EE0FFF1FE80FF91FF9
:10127000E255FE4F808161E08F734DD2FF91EF9177
:10128000BF91AF919F918F917F916F915F914F919E
:101290003F912F910F900FBE0F901F90189580E4F3
:1012A0009CE990938900809388008FEF8093AD0133
:1012B000E5CFFC019091AC019C3098F481E0890F5E
:1012C0008093AC019083892F90E0FC01EE0FFF1F0B
:1012D000E80FF91FE255FE4F88EB9BE09283818374
:1012E00008958FEF80830895DF92EF92FF920F931E
:1012F0001F93CF93DF93EC01D62E7A018901888169
:101300008C3008F065C061E08D2DC9D18881282F0F
:1013100030E0F901EE0FFF1FE20FF31FE255FE4F21
:101320009D2D9F736081607C692B608320E232E099
:101330002E193F0937FF02C02D5F3F4F3595279586
:1013400035952795298320E639E0201B310B37FF9F
:1013500002C02D5F3F4F35952795359527952A83F8
:101360002CE0622F2ED4829FB001112430E020E0C7
:10137000AB01420F531FFA01EE0FFF1FE40FF51FE1
:10138000E255FE4F908196FD16C02F5F3F4F2C30E7
:10139000310571F781110FC01092800082E08093B7
:1013A00081001092850010928400B19A80916F00A4
:1013B000826080936F00E8818E2F90E0FC01EE0F39
:1013C000FF1FE80FF91FE255FE4F80818064808384
:1013D0008881DF91CF911F910F91FF90EF90DF9067
:1013E000089520E639E040E252E07ECFDC01EC9146
:1013F000EC3090F511968C91119728E830E0281B7D
:10140000310987FD3395220F331F220F331F6217D7
:10141000730784F012968C9128E532E0281B31097D
:1014200087FD3395220F331F220F331F6217730777
:101430000CF49B0122503109220F331F4FB7F8944F
:101440008E2F90E0FC01EE0FFF1FE80FF91FE25511
:10145000FE4F328321834FBF0895AF92BF92CF9248
:10146000DF92EF92FF920F931F93CF93DF93EC01E4
:10147000603282E078070CF03DC0653B710514F0E6
:1014800064EB70E0898148E8A42EB12CA81AB10859
:1014900087FDB394AA0CBB1CAA0CBB1C0B2C000C24
:1014A000CC08DD0877FF02C070E060E0072E000C7A
:1014B000880B990B2A8108E512E0021B110927FD10
:1014C0001395000F111F000F111F012E000C220B8E
:1014D000330B3F932F931F930F9314EBE12EF12CBB
:1014E00000E010E020E030E0A9011DD30F900F9044
:1014F0000F900F90CE01DF91CF911F910F91FF9030
:10150000EF90DF90CF90BF90AF9070CF1F920F926F
:101510000FB60F9211242F933F938F939F93AF9306
:10152000BF938091D3019091D401A091D501B09146
:10153000D6013091D20123E0230F2D3758F50196C3
:10154000A11DB11D2093D2018093D3019093D401AA
:10155000A093D501B093D6018091D7019091D80185
:10156000A091D901B091DA010196A11DB11D80931E
:10157000D7019093D801A093D901B093DA01BF911C
:10158000AF919F918F913F912F910F900FBE0F9030
:101590001F90189526E8230F0296A11DB11DD2CFEA
:1015A000789484B5826084BD84B5816084BD85B53E
:1015B000826085BD85B5816085BDEEE6F0E0808105
:1015C00081608083E1E8F0E0108280818260808326
:1015D000808181608083E0E8F0E0808181608083A9
:1015E000E1EBF0E0808184608083E0EBF0E08081DB
:1015F00081608083EAE7F0E080818460808380817D
:101600008260808380818160808380818068808324
:101610001092C10008958E3008F08E502091840100
:1016200090E4299F900111248770822B80937C0085
:1016300080917A00806480937A0080917A0086FDA0
:10164000FCCF80917800909179000895833081F0EB
:1016500028F4813099F08230A9F008958730A9F0FC
:101660008830C9F08430B1F4809180008F7D03C050
:10167000809180008F7780938000089584B58F7764
:1016800084BD089584B58F7DFBCF8091B0008F77A6
:101690008093B00008958091B0008F7DF9CFCF93F3
:1016A000DF9390E0FC01E458FF4F249180579F4F57
:1016B000FC0184918823C9F090E0880F991FFC01F8
:1016C000E255FF4FA591B491FC01EC55FF4FC59138
:1016D000D49161110DC09FB7F8948C91209582230D
:1016E0008C938881282328839FBFDF91CF91089511
:1016F000623051F49FB7F8943C91822F80958323F8
:101700008C93E8812E2BEFCF8FB7F894EC912E2B92
:101710002C938FBFEACF1F93CF93DF93282F30E016
:10172000F901E859FF4F8491F901E458FF4FD49132
:10173000F901E057FF4FC491CC23A1F0162F81117E
:1017400085DFEC2FF0E0EE0FFF1FEC55FF4FA5916A
:10175000B4918FB7F894EC91111108C0D095DE23A5
:10176000DC938FBFDF91CF911F910895DE2BF8CFCF
:10177000FC01918D228D892F90E0805C9F4F821B10
:1017800091098F7399270895FC01918D828D981787
:1017900031F0828DE80FF11D858D90E008958FEF77
:1017A0009FEF0895FC01918D828D981761F0A28DB5
:1017B000AE0FBF2FB11D5D968C91928D9F5F9F7371
:1017C000928F90E008958FEF9FEF0895FC01538D65
:1017D000448D252F30E0842F90E0821B930B54170B
:1017E00010F0CF96089501970895FC01A48DA80FDD
:1017F000B92FB11DA35ABF4F2C91848D90E0019653
:101800008F739927848FA689B7892C93A089B18972
:101810008C91837080648C93938D848D981306C013
:101820000288F389E02D80818F7D80830895CF9396
:10183000DF93EC01888D8823B1F0AA89BB89E88900
:10184000F9898C9185FD03C0808186FD0CC00FB69F
:1018500007FCF7CF8C9185FFF2CF808185FFEDCF1C
:10186000CE01C3DFEACFDF91CF910895EF92FF92CF
:101870000F931F93CF93DF93EC0181E0888F9B8DB3
:101880008C8D98131AC0E889F989808185FF15C06D
:101890009FB7F894EE89FF896083E889F989808190
:1018A0008370806480839FBF81E090E0DF91CF915F
:1018B0001F910F91FF90EF900895F62E0B8D10E081
:1018C0000F5F1F4F0F731127E02E8C8D8E110BC0F1
:1018D0000FB607FCFACFE889F989808185FFF5CF3B
:1018E000CE0183DFF2CFEB8DEC0FFD2FF11DE35A1C
:1018F000FF4FF0829FB7F8940B8FEA89FB898081B4
:101900008062D0CFCF92DF92EF92FF921F93CF935E
:10191000DF93EC016A017B01122FE889F98982E0EB
:101920008083C11481EED806E104F10499F060E0EF
:1019300079E08DE390E0A70196014FD12150310964
:10194000410951095695479537952795211580E10D
:10195000380790F0E889F989108260E874E88EE130
:1019600090E0A701960139D121503109410951096F
:101970005695479537952795EC85FD853083EE85FF
:10198000FF852083188EEC89FD891083EA89FB8905
:10199000808180618083EA89FB898081886080837F
:1019A000EA89FB89808180688083EA89FB8980815C
:1019B0008F7D8083DF91CF911F91FF90EF90DF901B
:1019C000CF9008951F920F920FB60F9211242F936C
:1019D0008F939F93EF93FF93E091EB01F091EC01D4
:1019E0008081E091F101F091F20182FD1BC09081B4
:1019F0008091F4018F5F8F732091F501821741F080
:101A0000E091F401F0E0E552FE4F958F8093F401F0
:101A1000FF91EF919F918F912F910F900FBE0F909B
:101A20001F9018958081F4CF1F920F920FB60F92DE
:101A300011242F933F934F935F936F937F938F93D3
:101A40009F93AF93BF93EF93FF938BED91E0CDDE28
:101A5000FF91EF91BF91AF919F918F917F916F9186
:101A60005F914F913F912F910F900FBE0F901F905C
:101A70001895EBEDF1E01382128288EE93E0A0E07E
:101A8000B0E084839583A683B7838BE891E091834C
:101A9000808385EC90E09587848784EC90E097873D
:101AA000868780EC90E0918B808B81EC90E0938B2B
:101AB000828B82EC90E0958B848B86EC90E0978B08
:101AC000868B118E128E138E148E0895AF92BF9254
:101AD000CF92DF92EF92FF920F931F93CF93DF93FA
:101AE0006C017B018B01040F151FEB015E01AE1829
:101AF000BF08C017D10759F06991D601ED91FC914B
:101B00000190F081E02DC6010995892B79F7C50177
:101B1000DF91CF911F910F91FF90EF90DF90CF90C9
:101B2000BF90AF9008954F925F926F927F92AF9265
:101B3000BF92CF92DF92EF92FF920F931F93CF93BA
:101B4000DF93CDB7DEB729013A019B01AC0124191F
:101B500035094609570989899A89AB89BC89BC012D
:101B6000CD016A197B098C099D091CD0A801970138
:101B7000241935094609570952D0CA01B9016A0D1D
:101B80007B1D8C1D9D1DDF91CF911F910F91FF90AB
:101B9000EF90DF90CF90BF90AF907F906F905F906D
:101BA0004F900895DB018F939F9355D0BF91AF91D4
:101BB000A29F800D911DA39F900DB29F900D1124A7
:101BC0000895991B79E004C0991F961708F0961B99
:101BD000881F7A95C9F780950895A1E21A2EAA1B4D
:101BE000BB1BFD010DC0AA1FBB1FEE1FFF1FA217CD
:101BF000B307E407F50720F0A21BB30BE40BF50BCA
:101C0000661F771F881F991F1A9469F76095709552
:101C1000809590959B01AC01BD01CF010895052EE3
:101C200097FB16F400940FD057FD05D0D6DF07FCC4
:101C300002D046F408C050954095309521953F4F0D
:101C40004F4F5F4F089590958095709561957F4FA8
:101C50008F4F9F4F08950FD0A59F900DB49F900D6B
:101C6000A49F800D911D11240895EE0FFF1F059074
:101C7000F491E02D0994A29FB001B39FC001A39FEE
:101C8000700D811D1124911DB29F700D811D1124B5
:081C9000911D0895F894FFCFA7
:101C9800000080BF000080BF000080BF000080BF40
:101CA80000000000000000000000803F000000006D
:101CB8000000F042000000000000000000000000EA
:101CC800000000000000000000000000000000000C
:101CD800000000000000803F0000344300000000C6
:101CE8000000803F0000000000000000000070427B
:101CF8000000803F0000000000000000000000001D
:101D08000000000000004040000000400000803F4C
:101D18000000000001A60100000000360C660DE678
:0A1D28000B170CB80BD20BC40B0014
:00000001FF
